{
  "contractName": "ArigatoCoin",
  "abi": [
    {
      "inputs": [],
      "stateMutability": "nonpayable",
      "type": "constructor"
    },
    {
      "anonymous": false,
      "inputs": [
        {
          "indexed": true,
          "internalType": "address",
          "name": "owner",
          "type": "address"
        },
        {
          "indexed": true,
          "internalType": "address",
          "name": "spender",
          "type": "address"
        },
        {
          "indexed": false,
          "internalType": "uint256",
          "name": "value",
          "type": "uint256"
        }
      ],
      "name": "Approval",
      "type": "event"
    },
    {
      "anonymous": false,
      "inputs": [
        {
          "indexed": true,
          "internalType": "address",
          "name": "previousOwner",
          "type": "address"
        },
        {
          "indexed": true,
          "internalType": "address",
          "name": "newOwner",
          "type": "address"
        }
      ],
      "name": "OwnershipTransferred",
      "type": "event"
    },
    {
      "anonymous": false,
      "inputs": [
        {
          "indexed": false,
          "internalType": "address",
          "name": "from",
          "type": "address"
        },
        {
          "indexed": false,
          "internalType": "address",
          "name": "to",
          "type": "address"
        },
        {
          "indexed": false,
          "internalType": "string",
          "name": "message",
          "type": "string"
        },
        {
          "indexed": false,
          "internalType": "uint256",
          "name": "amount",
          "type": "uint256"
        }
      ],
      "name": "SubmittedArigato",
      "type": "event"
    },
    {
      "anonymous": false,
      "inputs": [
        {
          "indexed": true,
          "internalType": "address",
          "name": "from",
          "type": "address"
        },
        {
          "indexed": true,
          "internalType": "address",
          "name": "to",
          "type": "address"
        },
        {
          "indexed": false,
          "internalType": "uint256",
          "name": "value",
          "type": "uint256"
        }
      ],
      "name": "Transfer",
      "type": "event"
    },
    {
      "anonymous": false,
      "inputs": [
        {
          "indexed": false,
          "internalType": "string",
          "name": "name",
          "type": "string"
        },
        {
          "indexed": false,
          "internalType": "string",
          "name": "email",
          "type": "string"
        }
      ],
      "name": "UserAdded",
      "type": "event"
    },
    {
      "anonymous": false,
      "inputs": [
        {
          "indexed": false,
          "internalType": "string",
          "name": "name",
          "type": "string"
        },
        {
          "indexed": false,
          "internalType": "string",
          "name": "email",
          "type": "string"
        }
      ],
      "name": "UserUpdated",
      "type": "event"
    },
    {
      "inputs": [
        {
          "internalType": "address",
          "name": "owner",
          "type": "address"
        },
        {
          "internalType": "address",
          "name": "spender",
          "type": "address"
        }
      ],
      "name": "allowance",
      "outputs": [
        {
          "internalType": "uint256",
          "name": "",
          "type": "uint256"
        }
      ],
      "stateMutability": "view",
      "type": "function",
      "constant": true
    },
    {
      "inputs": [
        {
          "internalType": "address",
          "name": "spender",
          "type": "address"
        },
        {
          "internalType": "uint256",
          "name": "amount",
          "type": "uint256"
        }
      ],
      "name": "approve",
      "outputs": [
        {
          "internalType": "bool",
          "name": "",
          "type": "bool"
        }
      ],
      "stateMutability": "nonpayable",
      "type": "function"
    },
    {
      "inputs": [
        {
          "internalType": "address",
          "name": "account",
          "type": "address"
        }
      ],
      "name": "balanceOf",
      "outputs": [
        {
          "internalType": "uint256",
          "name": "",
          "type": "uint256"
        }
      ],
      "stateMutability": "view",
      "type": "function",
      "constant": true
    },
    {
      "inputs": [],
      "name": "decimals",
      "outputs": [
        {
          "internalType": "uint8",
          "name": "",
          "type": "uint8"
        }
      ],
      "stateMutability": "view",
      "type": "function",
      "constant": true
    },
    {
      "inputs": [
        {
          "internalType": "address",
          "name": "spender",
          "type": "address"
        },
        {
          "internalType": "uint256",
          "name": "subtractedValue",
          "type": "uint256"
        }
      ],
      "name": "decreaseAllowance",
      "outputs": [
        {
          "internalType": "bool",
          "name": "",
          "type": "bool"
        }
      ],
      "stateMutability": "nonpayable",
      "type": "function"
    },
    {
      "inputs": [
        {
          "internalType": "address",
          "name": "spender",
          "type": "address"
        },
        {
          "internalType": "uint256",
          "name": "addedValue",
          "type": "uint256"
        }
      ],
      "name": "increaseAllowance",
      "outputs": [
        {
          "internalType": "bool",
          "name": "",
          "type": "bool"
        }
      ],
      "stateMutability": "nonpayable",
      "type": "function"
    },
    {
      "inputs": [
        {
          "internalType": "uint256",
          "name": "",
          "type": "uint256"
        }
      ],
      "name": "messages",
      "outputs": [
        {
          "internalType": "address",
          "name": "to",
          "type": "address"
        },
        {
          "internalType": "string",
          "name": "message",
          "type": "string"
        }
      ],
      "stateMutability": "view",
      "type": "function",
      "constant": true
    },
    {
      "inputs": [],
      "name": "name",
      "outputs": [
        {
          "internalType": "string",
          "name": "",
          "type": "string"
        }
      ],
      "stateMutability": "view",
      "type": "function",
      "constant": true
    },
    {
      "inputs": [],
      "name": "owner",
      "outputs": [
        {
          "internalType": "address",
          "name": "",
          "type": "address"
        }
      ],
      "stateMutability": "view",
      "type": "function",
      "constant": true
    },
    {
      "inputs": [],
      "name": "renounceOwnership",
      "outputs": [],
      "stateMutability": "nonpayable",
      "type": "function"
    },
    {
      "inputs": [],
      "name": "symbol",
      "outputs": [
        {
          "internalType": "string",
          "name": "",
          "type": "string"
        }
      ],
      "stateMutability": "view",
      "type": "function",
      "constant": true
    },
    {
      "inputs": [],
      "name": "totalSupply",
      "outputs": [
        {
          "internalType": "uint256",
          "name": "",
          "type": "uint256"
        }
      ],
      "stateMutability": "view",
      "type": "function",
      "constant": true
    },
    {
      "inputs": [
        {
          "internalType": "address",
          "name": "to",
          "type": "address"
        },
        {
          "internalType": "uint256",
          "name": "amount",
          "type": "uint256"
        }
      ],
      "name": "transfer",
      "outputs": [
        {
          "internalType": "bool",
          "name": "",
          "type": "bool"
        }
      ],
      "stateMutability": "nonpayable",
      "type": "function"
    },
    {
      "inputs": [
        {
          "internalType": "address",
          "name": "from",
          "type": "address"
        },
        {
          "internalType": "address",
          "name": "to",
          "type": "address"
        },
        {
          "internalType": "uint256",
          "name": "amount",
          "type": "uint256"
        }
      ],
      "name": "transferFrom",
      "outputs": [
        {
          "internalType": "bool",
          "name": "",
          "type": "bool"
        }
      ],
      "stateMutability": "nonpayable",
      "type": "function"
    },
    {
      "inputs": [
        {
          "internalType": "address",
          "name": "newOwner",
          "type": "address"
        }
      ],
      "name": "transferOwnership",
      "outputs": [],
      "stateMutability": "nonpayable",
      "type": "function"
    },
    {
      "inputs": [
        {
          "internalType": "string",
          "name": "_name",
          "type": "string"
        },
        {
          "internalType": "string",
          "name": "_email",
          "type": "string"
        }
      ],
      "name": "updateUser",
      "outputs": [
        {
          "internalType": "bool",
          "name": "",
          "type": "bool"
        }
      ],
      "stateMutability": "nonpayable",
      "type": "function"
    },
    {
      "inputs": [
        {
          "internalType": "address",
          "name": "",
          "type": "address"
        }
      ],
      "name": "userId",
      "outputs": [
        {
          "internalType": "uint256",
          "name": "",
          "type": "uint256"
        }
      ],
      "stateMutability": "view",
      "type": "function",
      "constant": true
    },
    {
      "inputs": [
        {
          "internalType": "string",
          "name": "_name",
          "type": "string"
        },
        {
          "internalType": "string",
          "name": "_email",
          "type": "string"
        }
      ],
      "name": "addUser",
      "outputs": [
        {
          "internalType": "bool",
          "name": "",
          "type": "bool"
        }
      ],
      "stateMutability": "nonpayable",
      "type": "function"
    },
    {
      "inputs": [
        {
          "internalType": "address",
          "name": "_to",
          "type": "address"
        },
        {
          "internalType": "string",
          "name": "_message",
          "type": "string"
        },
        {
          "internalType": "uint256",
          "name": "_amount",
          "type": "uint256"
        }
      ],
      "name": "arigato",
      "outputs": [
        {
          "internalType": "bool",
          "name": "",
          "type": "bool"
        }
      ],
      "stateMutability": "nonpayable",
      "type": "function"
    }
  ],
  "bytecode": "0x60806040523480156200001157600080fd5b506040518060400160405280600b81526020017f4172696761746f436f696e0000000000000000000000000000000000000000008152506040518060400160405280600281526020017f41430000000000000000000000000000000000000000000000000000000000008152508160039080519060200190620000969291906200033b565b508060049080519060200190620000af9291906200033b565b505050620000d2620000c6620000eb60201b60201c565b620000f360201b60201c565b620000e5336064620001b960201b60201c565b62000596565b600033905090565b6000600560009054906101000a900473ffffffffffffffffffffffffffffffffffffffff16905081600560006101000a81548173ffffffffffffffffffffffffffffffffffffffff021916908373ffffffffffffffffffffffffffffffffffffffff1602179055508173ffffffffffffffffffffffffffffffffffffffff168173ffffffffffffffffffffffffffffffffffffffff167f8be0079c531659141344cd1fd0a4f28419497f9722a3daafe3b4186f6b6457e060405160405180910390a35050565b600073ffffffffffffffffffffffffffffffffffffffff168273ffffffffffffffffffffffffffffffffffffffff16036200022b576040517f08c379a000000000000000000000000000000000000000000000000000000000815260040162000222906200044c565b60405180910390fd5b6200023f600083836200033160201b60201c565b8060026000828254620002539190620004a7565b92505081905550806000808473ffffffffffffffffffffffffffffffffffffffff1673ffffffffffffffffffffffffffffffffffffffff1681526020019081526020016000206000828254620002aa9190620004a7565b925050819055508173ffffffffffffffffffffffffffffffffffffffff16600073ffffffffffffffffffffffffffffffffffffffff167fddf252ad1be2c89b69c2b068fc378daa952ba7f163c4a11628f55a4df523b3ef8360405162000311919062000515565b60405180910390a36200032d600083836200033660201b60201c565b5050565b505050565b505050565b828054620003499062000561565b90600052602060002090601f0160209004810192826200036d5760008555620003b9565b82601f106200038857805160ff1916838001178555620003b9565b82800160010185558215620003b9579182015b82811115620003b85782518255916020019190600101906200039b565b5b509050620003c89190620003cc565b5090565b5b80821115620003e7576000816000905550600101620003cd565b5090565b600082825260208201905092915050565b7f45524332303a206d696e7420746f20746865207a65726f206164647265737300600082015250565b600062000434601f83620003eb565b91506200044182620003fc565b602082019050919050565b60006020820190508181036000830152620004678162000425565b9050919050565b6000819050919050565b7f4e487b7100000000000000000000000000000000000000000000000000000000600052601160045260246000fd5b6000620004b4826200046e565b9150620004c1836200046e565b9250827fffffffffffffffffffffffffffffffffffffffffffffffffffffffffffffffff03821115620004f957620004f862000478565b5b828201905092915050565b6200050f816200046e565b82525050565b60006020820190506200052c600083018462000504565b92915050565b7f4e487b7100000000000000000000000000000000000000000000000000000000600052602260045260246000fd5b600060028204905060018216806200057a57607f821691505b60208210810362000590576200058f62000532565b5b50919050565b61282780620005a66000396000f3fe608060405234801561001057600080fd5b50600436106101215760003560e01c806370a08231116100ad578063a457c2d711610071578063a457c2d714610347578063a9059cbb14610377578063dd4a2425146103a7578063dd62ed3e146103d7578063f2fde38b1461040757610121565b806370a08231146102a1578063715018a6146102d15780638da5cb5b146102db57806395d89b41146102f9578063a0d8333e1461031757610121565b806318160ddd116100f457806318160ddd146101d557806323b872dd146101f3578063313ce56714610223578063376fe10214610241578063395093511461027157610121565b806306fdde0314610126578063079eaf3414610144578063095ea7b3146101745780630d80fefd146101a4575b600080fd5b61012e610423565b60405161013b9190611a3e565b60405180910390f35b61015e60048036038101906101599190611ba9565b6104b5565b60405161016b9190611c3c565b60405180910390f35b61018e60048036038101906101899190611ceb565b6106b4565b60405161019b9190611c3c565b60405180910390f35b6101be60048036038101906101b99190611d2b565b6106d7565b6040516101cc929190611d67565b60405180910390f35b6101dd6107b3565b6040516101ea9190611da6565b60405180910390f35b61020d60048036038101906102089190611dc1565b6107bd565b60405161021a9190611c3c565b60405180910390f35b61022b6107ec565b6040516102389190611e30565b60405180910390f35b61025b60048036038101906102569190611e4b565b6107f5565b6040516102689190611da6565b60405180910390f35b61028b60048036038101906102869190611ceb565b61080d565b6040516102989190611c3c565b60405180910390f35b6102bb60048036038101906102b69190611e4b565b610844565b6040516102c89190611da6565b60405180910390f35b6102d961088c565b005b6102e3610914565b6040516102f09190611e78565b60405180910390f35b61030161093e565b60405161030e9190611a3e565b60405180910390f35b610331600480360381019061032c9190611e93565b6109d0565b60405161033e9190611c3c565b60405180910390f35b610361600480360381019061035c9190611ceb565b610bbc565b60405161036e9190611c3c565b60405180910390f35b610391600480360381019061038c9190611ceb565b610c33565b60405161039e9190611c3c565b60405180910390f35b6103c160048036038101906103bc9190611ba9565b610c56565b6040516103ce9190611c3c565b60405180910390f35b6103f160048036038101906103ec9190611f02565b610e19565b6040516103fe9190611da6565b60405180910390f35b610421600480360381019061041c9190611e4b565b610ea0565b005b60606003805461043290611f71565b80601f016020809104026020016040519081016040528092919081815260200182805461045e90611f71565b80156104ab5780601f10610480576101008083540402835291602001916104ab565b820191906000526020600020905b81548152906001019060200180831161048e57829003601f168201915b5050505050905090565b600080600760003373ffffffffffffffffffffffffffffffffffffffff1673ffffffffffffffffffffffffffffffffffffffff1681526020019081526020016000205414610538576040517f08c379a000000000000000000000000000000000000000000000000000000000815260040161052f90611fee565b60405180910390fd5b600660405180606001604052808581526020018481526020013373ffffffffffffffffffffffffffffffffffffffff16815250908060018154018082558091505060019003906000526020600020906003020160009091909190915060008201518160000190805190602001906105b0929190611902565b5060208201518160010190805190602001906105cd929190611902565b5060408201518160020160006101000a81548173ffffffffffffffffffffffffffffffffffffffff021916908373ffffffffffffffffffffffffffffffffffffffff16021790555050506000600680549050905080600760003373ffffffffffffffffffffffffffffffffffffffff1673ffffffffffffffffffffffffffffffffffffffff16815260200190815260200160002081905550610670336064610f97565b7f7acd5e18c3b134a0ffbfa8b0d9197999ad8fc1f631209c136272d5af877394dc84846040516106a192919061200e565b60405180910390a1600191505092915050565b6000806106bf6110f6565b90506106cc8185856110fe565b600191505092915050565b600881815481106106e757600080fd5b90600052602060002090600202016000915090508060000160009054906101000a900473ffffffffffffffffffffffffffffffffffffffff169080600101805461073090611f71565b80601f016020809104026020016040519081016040528092919081815260200182805461075c90611f71565b80156107a95780601f1061077e576101008083540402835291602001916107a9565b820191906000526020600020905b81548152906001019060200180831161078c57829003601f168201915b5050505050905082565b6000600254905090565b6000806107c86110f6565b90506107d58582856112c7565b6107e0858585611353565b60019150509392505050565b60006012905090565b60076020528060005260406000206000915090505481565b6000806108186110f6565b905061083981858561082a8589610e19565b6108349190612074565b6110fe565b600191505092915050565b60008060008373ffffffffffffffffffffffffffffffffffffffff1673ffffffffffffffffffffffffffffffffffffffff168152602001908152602001600020549050919050565b6108946110f6565b73ffffffffffffffffffffffffffffffffffffffff166108b2610914565b73ffffffffffffffffffffffffffffffffffffffff1614610908576040517f08c379a00000000000000000000000000000000000000000000000000000000081526004016108ff90612116565b60405180910390fd5b61091260006115d2565b565b6000600560009054906101000a900473ffffffffffffffffffffffffffffffffffffffff16905090565b60606004805461094d90611f71565b80601f016020809104026020016040519081016040528092919081815260200182805461097990611f71565b80156109c65780601f1061099b576101008083540402835291602001916109c6565b820191906000526020600020905b8154815290600101906020018083116109a957829003601f168201915b5050505050905090565b60006109db33611698565b610a1a576040517f08c379a0000000000000000000000000000000000000000000000000000000008152600401610a1190612182565b60405180910390fd5b600a610a2533610844565b10610a65576040517f08c379a0000000000000000000000000000000000000000000000000000000008152600401610a5c906121ee565b60405180910390fd5b610a6e84611698565b610aad576040517f08c379a0000000000000000000000000000000000000000000000000000000008152600401610aa490612280565b60405180910390fd5b600860405180604001604052808673ffffffffffffffffffffffffffffffffffffffff16815260200185815250908060018154018082558091505060019003906000526020600020906002020160009091909190915060008201518160000160006101000a81548173ffffffffffffffffffffffffffffffffffffffff021916908373ffffffffffffffffffffffffffffffffffffffff1602179055506020820151816001019080519060200190610b66929190611902565b505050610b738483610c33565b507f476c02c1b61b28957489d3ca774dc63d9d3daa863d3004bdc4e5369f4b2f0f7933858585604051610ba994939291906122a0565b60405180910390a1600190509392505050565b600080610bc76110f6565b90506000610bd58286610e19565b905083811015610c1a576040517f08c379a0000000000000000000000000000000000000000000000000000000008152600401610c119061235e565b60405180910390fd5b610c2782868684036110fe565b60019250505092915050565b600080610c3e6110f6565b9050610c4b818585611353565b600191505092915050565b6000610c606110f6565b73ffffffffffffffffffffffffffffffffffffffff16610c7e610914565b73ffffffffffffffffffffffffffffffffffffffff1614610cd4576040517f08c379a0000000000000000000000000000000000000000000000000000000008152600401610ccb90612116565b60405180910390fd5b6000600760003373ffffffffffffffffffffffffffffffffffffffff1673ffffffffffffffffffffffffffffffffffffffff1681526020019081526020016000205403610d56576040517f08c379a0000000000000000000000000000000000000000000000000000000008152600401610d4d90612182565b60405180910390fd5b6000600760003373ffffffffffffffffffffffffffffffffffffffff1673ffffffffffffffffffffffffffffffffffffffff1681526020019081526020016000205490508360068281548110610daf57610dae61237e565b5b90600052602060002090600302016000019080519060200190610dd3929190611902565b508260068281548110610de957610de861237e565b5b90600052602060002090600302016001019080519060200190610e0d929190611902565b50600191505092915050565b6000600160008473ffffffffffffffffffffffffffffffffffffffff1673ffffffffffffffffffffffffffffffffffffffff16815260200190815260200160002060008373ffffffffffffffffffffffffffffffffffffffff1673ffffffffffffffffffffffffffffffffffffffff16815260200190815260200160002054905092915050565b610ea86110f6565b73ffffffffffffffffffffffffffffffffffffffff16610ec6610914565b73ffffffffffffffffffffffffffffffffffffffff1614610f1c576040517f08c379a0000000000000000000000000000000000000000000000000000000008152600401610f1390612116565b60405180910390fd5b600073ffffffffffffffffffffffffffffffffffffffff168173ffffffffffffffffffffffffffffffffffffffff1603610f8b576040517f08c379a0000000000000000000000000000000000000000000000000000000008152600401610f829061241f565b60405180910390fd5b610f94816115d2565b50565b600073ffffffffffffffffffffffffffffffffffffffff168273ffffffffffffffffffffffffffffffffffffffff1603611006576040517f08c379a0000000000000000000000000000000000000000000000000000000008152600401610ffd9061248b565b60405180910390fd5b611012600083836116ed565b80600260008282546110249190612074565b92505081905550806000808473ffffffffffffffffffffffffffffffffffffffff1673ffffffffffffffffffffffffffffffffffffffff16815260200190815260200160002060008282546110799190612074565b925050819055508173ffffffffffffffffffffffffffffffffffffffff16600073ffffffffffffffffffffffffffffffffffffffff167fddf252ad1be2c89b69c2b068fc378daa952ba7f163c4a11628f55a4df523b3ef836040516110de9190611da6565b60405180910390a36110f2600083836116f2565b5050565b600033905090565b600073ffffffffffffffffffffffffffffffffffffffff168373ffffffffffffffffffffffffffffffffffffffff160361116d576040517f08c379a00000000000000000000000000000000000000000000000000000000081526004016111649061251d565b60405180910390fd5b600073ffffffffffffffffffffffffffffffffffffffff168273ffffffffffffffffffffffffffffffffffffffff16036111dc576040517f08c379a00000000000000000000000000000000000000000000000000000000081526004016111d3906125af565b60405180910390fd5b80600160008573ffffffffffffffffffffffffffffffffffffffff1673ffffffffffffffffffffffffffffffffffffffff16815260200190815260200160002060008473ffffffffffffffffffffffffffffffffffffffff1673ffffffffffffffffffffffffffffffffffffffff168152602001908152602001600020819055508173ffffffffffffffffffffffffffffffffffffffff168373ffffffffffffffffffffffffffffffffffffffff167f8c5be1e5ebec7d5bd14f71427d1e84f3dd0314c0f7b2291e5b200ac8c7c3b925836040516112ba9190611da6565b60405180910390a3505050565b60006112d38484610e19565b90507fffffffffffffffffffffffffffffffffffffffffffffffffffffffffffffffff811461134d578181101561133f576040517f08c379a00000000000000000000000000000000000000000000000000000000081526004016113369061261b565b60405180910390fd5b61134c84848484036110fe565b5b50505050565b600073ffffffffffffffffffffffffffffffffffffffff168373ffffffffffffffffffffffffffffffffffffffff16036113c2576040517f08c379a00000000000000000000000000000000000000000000000000000000081526004016113b9906126ad565b60405180910390fd5b600073ffffffffffffffffffffffffffffffffffffffff168273ffffffffffffffffffffffffffffffffffffffff1603611431576040517f08c379a00000000000000000000000000000000000000000000000000000000081526004016114289061273f565b60405180910390fd5b61143c8383836116ed565b60008060008573ffffffffffffffffffffffffffffffffffffffff1673ffffffffffffffffffffffffffffffffffffffff168152602001908152602001600020549050818110156114c2576040517f08c379a00000000000000000000000000000000000000000000000000000000081526004016114b9906127d1565b60405180910390fd5b8181036000808673ffffffffffffffffffffffffffffffffffffffff1673ffffffffffffffffffffffffffffffffffffffff16815260200190815260200160002081905550816000808573ffffffffffffffffffffffffffffffffffffffff1673ffffffffffffffffffffffffffffffffffffffff16815260200190815260200160002060008282546115559190612074565b925050819055508273ffffffffffffffffffffffffffffffffffffffff168473ffffffffffffffffffffffffffffffffffffffff167fddf252ad1be2c89b69c2b068fc378daa952ba7f163c4a11628f55a4df523b3ef846040516115b99190611da6565b60405180910390a36115cc8484846116f2565b50505050565b6000600560009054906101000a900473ffffffffffffffffffffffffffffffffffffffff16905081600560006101000a81548173ffffffffffffffffffffffffffffffffffffffff021916908373ffffffffffffffffffffffffffffffffffffffff1602179055508173ffffffffffffffffffffffffffffffffffffffff168173ffffffffffffffffffffffffffffffffffffffff167f8be0079c531659141344cd1fd0a4f28419497f9722a3daafe3b4186f6b6457e060405160405180910390a35050565b600060608060006116a8856116f7565b8093508194508295505050508473ffffffffffffffffffffffffffffffffffffffff168173ffffffffffffffffffffffffffffffffffffffff16149350505050919050565b505050565b505050565b6060806000806006600760008773ffffffffffffffffffffffffffffffffffffffff1673ffffffffffffffffffffffffffffffffffffffff16815260200190815260200160002054815481106117505761174f61237e565b5b906000526020600020906003020160405180606001604052908160008201805461177990611f71565b80601f01602080910402602001604051908101604052809291908181526020018280546117a590611f71565b80156117f25780601f106117c7576101008083540402835291602001916117f2565b820191906000526020600020905b8154815290600101906020018083116117d557829003601f168201915b5050505050815260200160018201805461180b90611f71565b80601f016020809104026020016040519081016040528092919081815260200182805461183790611f71565b80156118845780601f1061185957610100808354040283529160200191611884565b820191906000526020600020905b81548152906001019060200180831161186757829003601f168201915b505050505081526020016002820160009054906101000a900473ffffffffffffffffffffffffffffffffffffffff1673ffffffffffffffffffffffffffffffffffffffff1673ffffffffffffffffffffffffffffffffffffffff16815250509050806000015181602001518260400151935093509350509193909250565b82805461190e90611f71565b90600052602060002090601f0160209004810192826119305760008555611977565b82601f1061194957805160ff1916838001178555611977565b82800160010185558215611977579182015b8281111561197657825182559160200191906001019061195b565b5b5090506119849190611988565b5090565b5b808211156119a1576000816000905550600101611989565b5090565b600081519050919050565b600082825260208201905092915050565b60005b838110156119df5780820151818401526020810190506119c4565b838111156119ee576000848401525b50505050565b6000601f19601f8301169050919050565b6000611a10826119a5565b611a1a81856119b0565b9350611a2a8185602086016119c1565b611a33816119f4565b840191505092915050565b60006020820190508181036000830152611a588184611a05565b905092915050565b6000604051905090565b600080fd5b600080fd5b600080fd5b600080fd5b7f4e487b7100000000000000000000000000000000000000000000000000000000600052604160045260246000fd5b611ab6826119f4565b810181811067ffffffffffffffff82111715611ad557611ad4611a7e565b5b80604052505050565b6000611ae8611a60565b9050611af48282611aad565b919050565b600067ffffffffffffffff821115611b1457611b13611a7e565b5b611b1d826119f4565b9050602081019050919050565b82818337600083830152505050565b6000611b4c611b4784611af9565b611ade565b905082815260208101848484011115611b6857611b67611a79565b5b611b73848285611b2a565b509392505050565b600082601f830112611b9057611b8f611a74565b5b8135611ba0848260208601611b39565b91505092915050565b60008060408385031215611bc057611bbf611a6a565b5b600083013567ffffffffffffffff811115611bde57611bdd611a6f565b5b611bea85828601611b7b565b925050602083013567ffffffffffffffff811115611c0b57611c0a611a6f565b5b611c1785828601611b7b565b9150509250929050565b60008115159050919050565b611c3681611c21565b82525050565b6000602082019050611c516000830184611c2d565b92915050565b600073ffffffffffffffffffffffffffffffffffffffff82169050919050565b6000611c8282611c57565b9050919050565b611c9281611c77565b8114611c9d57600080fd5b50565b600081359050611caf81611c89565b92915050565b6000819050919050565b611cc881611cb5565b8114611cd357600080fd5b50565b600081359050611ce581611cbf565b92915050565b60008060408385031215611d0257611d01611a6a565b5b6000611d1085828601611ca0565b9250506020611d2185828601611cd6565b9150509250929050565b600060208284031215611d4157611d40611a6a565b5b6000611d4f84828501611cd6565b91505092915050565b611d6181611c77565b82525050565b6000604082019050611d7c6000830185611d58565b8181036020830152611d8e8184611a05565b90509392505050565b611da081611cb5565b82525050565b6000602082019050611dbb6000830184611d97565b92915050565b600080600060608486031215611dda57611dd9611a6a565b5b6000611de886828701611ca0565b9350506020611df986828701611ca0565b9250506040611e0a86828701611cd6565b9150509250925092565b600060ff82169050919050565b611e2a81611e14565b82525050565b6000602082019050611e456000830184611e21565b92915050565b600060208284031215611e6157611e60611a6a565b5b6000611e6f84828501611ca0565b91505092915050565b6000602082019050611e8d6000830184611d58565b92915050565b600080600060608486031215611eac57611eab611a6a565b5b6000611eba86828701611ca0565b935050602084013567ffffffffffffffff811115611edb57611eda611a6f565b5b611ee786828701611b7b565b9250506040611ef886828701611cd6565b9150509250925092565b60008060408385031215611f1957611f18611a6a565b5b6000611f2785828601611ca0565b9250506020611f3885828601611ca0565b9150509250929050565b7f4e487b7100000000000000000000000000000000000000000000000000000000600052602260045260246000fd5b60006002820490506001821680611f8957607f821691505b602082108103611f9c57611f9b611f42565b5b50919050565b7f7573657220697320616c726561647920726567697374657265642e0000000000600082015250565b6000611fd8601b836119b0565b9150611fe382611fa2565b602082019050919050565b6000602082019050818103600083015261200781611fcb565b9050919050565b600060408201905081810360008301526120288185611a05565b9050818103602083015261203c8184611a05565b90509392505050565b7f4e487b7100000000000000000000000000000000000000000000000000000000600052601160045260246000fd5b600061207f82611cb5565b915061208a83611cb5565b9250827fffffffffffffffffffffffffffffffffffffffffffffffffffffffffffffffff038211156120bf576120be612045565b5b828201905092915050565b7f4f776e61626c653a2063616c6c6572206973206e6f7420746865206f776e6572600082015250565b60006121006020836119b0565b915061210b826120ca565b602082019050919050565b6000602082019050818103600083015261212f816120f3565b9050919050565b7f75736572206e6f7420666f756e642e0000000000000000000000000000000000600082015250565b600061216c600f836119b0565b915061217782612136565b602082019050919050565b6000602082019050818103600083015261219b8161215f565b9050919050565b7f636f696e73206172652073686f727420737570706c792e000000000000000000600082015250565b60006121d86017836119b0565b91506121e3826121a2565b602082019050919050565b60006020820190508181036000830152612207816121cb565b9050919050565b7f796f752061726520747279696e6720746f2073656e6420746f2061206e6f6e2d60008201527f6578697374656e7420757365722e000000000000000000000000000000000000602082015250565b600061226a602e836119b0565b91506122758261220e565b604082019050919050565b600060208201905081810360008301526122998161225d565b9050919050565b60006080820190506122b56000830187611d58565b6122c26020830186611d58565b81810360408301526122d48185611a05565b90506122e36060830184611d97565b95945050505050565b7f45524332303a2064656372656173656420616c6c6f77616e63652062656c6f7760008201527f207a65726f000000000000000000000000000000000000000000000000000000602082015250565b60006123486025836119b0565b9150612353826122ec565b604082019050919050565b600060208201905081810360008301526123778161233b565b9050919050565b7f4e487b7100000000000000000000000000000000000000000000000000000000600052603260045260246000fd5b7f4f776e61626c653a206e6577206f776e657220697320746865207a65726f206160008201527f6464726573730000000000000000000000000000000000000000000000000000602082015250565b60006124096026836119b0565b9150612414826123ad565b604082019050919050565b60006020820190508181036000830152612438816123fc565b9050919050565b7f45524332303a206d696e7420746f20746865207a65726f206164647265737300600082015250565b6000612475601f836119b0565b91506124808261243f565b602082019050919050565b600060208201905081810360008301526124a481612468565b9050919050565b7f45524332303a20617070726f76652066726f6d20746865207a65726f2061646460008201527f7265737300000000000000000000000000000000000000000000000000000000602082015250565b60006125076024836119b0565b9150612512826124ab565b604082019050919050565b60006020820190508181036000830152612536816124fa565b9050919050565b7f45524332303a20617070726f766520746f20746865207a65726f20616464726560008201527f7373000000000000000000000000000000000000000000000000000000000000602082015250565b60006125996022836119b0565b91506125a48261253d565b604082019050919050565b600060208201905081810360008301526125c88161258c565b9050919050565b7f45524332303a20696e73756666696369656e7420616c6c6f77616e6365000000600082015250565b6000612605601d836119b0565b9150612610826125cf565b602082019050919050565b60006020820190508181036000830152612634816125f8565b9050919050565b7f45524332303a207472616e736665722066726f6d20746865207a65726f20616460008201527f6472657373000000000000000000000000000000000000000000000000000000602082015250565b60006126976025836119b0565b91506126a28261263b565b604082019050919050565b600060208201905081810360008301526126c68161268a565b9050919050565b7f45524332303a207472616e7366657220746f20746865207a65726f206164647260008201527f6573730000000000000000000000000000000000000000000000000000000000602082015250565b60006127296023836119b0565b9150612734826126cd565b604082019050919050565b600060208201905081810360008301526127588161271c565b9050919050565b7f45524332303a207472616e7366657220616d6f756e742065786365656473206260008201527f616c616e63650000000000000000000000000000000000000000000000000000602082015250565b60006127bb6026836119b0565b91506127c68261275f565b604082019050919050565b600060208201905081810360008301526127ea816127ae565b905091905056fea2646970667358221220009d59dcca72346dc69e3b9e0991598b26f3994792b0dc0eb36b1885a8de41bb64736f6c634300080e0033",
  "immutableReferences": {},
  "source": "// SPDX-License-Identifier: MIT\npragma solidity >=0.4.2 <=0.9.0;\n\nimport \"../node_modules/@openzeppelin/contracts/token/ERC20/ERC20.sol\";\nimport \"./Users.sol\";\n\ncontract ArigatoCoin is ERC20, Users {\n  struct Message {\n    address to;\n    string message;\n  }\n\n  constructor() ERC20(\"ArigatoCoin\", \"AC\") {\n    _mint(msg.sender, 100);\n  }\n\n  Message[] public messages;\n\n  event SubmittedArigato(address from, address to, string message, uint amount);\n\n  function addUser(string memory _name, string memory _email) public returns (bool) {\n    require(userId[msg.sender] == 0, \"user is already registered.\");\n    users.push(User(_name, _email, msg.sender));\n    uint id = users.length;\n    userId[msg.sender] = id;\n    _mint(msg.sender, 100);\n    emit UserAdded(_name, _email);\n    return true;\n  }\n\n  function arigato(address _to, string memory _message, uint _amount) public returns (bool) {\n    require(getIsExistedUser(msg.sender), \"user not found.\");\n    require(balanceOf(msg.sender) < 10, \"coins are short supply.\");\n    require(getIsExistedUser(_to), \"you are trying to send to a non-existent user.\");\n\n    messages.push(Message(_to, _message));\n    transfer(_to, _amount);\n    emit SubmittedArigato(msg.sender, _to, _message, _amount);\n\n    return true;\n  }\n}\n",
  "sourcePath": "/Users/muraokakento/works/private/arigato-coin/contracts/ArigatoCoin.sol",
  "compiler": {
    "name": "solc",
    "version": "0.8.14+commit.80d49f37.Emscripten.clang"
  },
  "schemaVersion": "3.4.7",
  "updatedAt": "2022-06-27T09:16:41.688Z",
  "networkType": "ethereum",
  "devdoc": {
    "kind": "dev",
    "methods": {
      "allowance(address,address)": {
        "details": "See {IERC20-allowance}."
      },
      "approve(address,uint256)": {
        "details": "See {IERC20-approve}. NOTE: If `amount` is the maximum `uint256`, the allowance is not updated on `transferFrom`. This is semantically equivalent to an infinite approval. Requirements: - `spender` cannot be the zero address."
      },
      "balanceOf(address)": {
        "details": "See {IERC20-balanceOf}."
      },
      "decimals()": {
        "details": "Returns the number of decimals used to get its user representation. For example, if `decimals` equals `2`, a balance of `505` tokens should be displayed to a user as `5.05` (`505 / 10 ** 2`). Tokens usually opt for a value of 18, imitating the relationship between Ether and Wei. This is the value {ERC20} uses, unless this function is overridden; NOTE: This information is only used for _display_ purposes: it in no way affects any of the arithmetic of the contract, including {IERC20-balanceOf} and {IERC20-transfer}."
      },
      "decreaseAllowance(address,uint256)": {
        "details": "Atomically decreases the allowance granted to `spender` by the caller. This is an alternative to {approve} that can be used as a mitigation for problems described in {IERC20-approve}. Emits an {Approval} event indicating the updated allowance. Requirements: - `spender` cannot be the zero address. - `spender` must have allowance for the caller of at least `subtractedValue`."
      },
      "increaseAllowance(address,uint256)": {
        "details": "Atomically increases the allowance granted to `spender` by the caller. This is an alternative to {approve} that can be used as a mitigation for problems described in {IERC20-approve}. Emits an {Approval} event indicating the updated allowance. Requirements: - `spender` cannot be the zero address."
      },
      "name()": {
        "details": "Returns the name of the token."
      },
      "owner()": {
        "details": "Returns the address of the current owner."
      },
      "renounceOwnership()": {
        "details": "Leaves the contract without owner. It will not be possible to call `onlyOwner` functions anymore. Can only be called by the current owner. NOTE: Renouncing ownership will leave the contract without an owner, thereby removing any functionality that is only available to the owner."
      },
      "symbol()": {
        "details": "Returns the symbol of the token, usually a shorter version of the name."
      },
      "totalSupply()": {
        "details": "See {IERC20-totalSupply}."
      },
      "transfer(address,uint256)": {
        "details": "See {IERC20-transfer}. Requirements: - `to` cannot be the zero address. - the caller must have a balance of at least `amount`."
      },
      "transferFrom(address,address,uint256)": {
        "details": "See {IERC20-transferFrom}. Emits an {Approval} event indicating the updated allowance. This is not required by the EIP. See the note at the beginning of {ERC20}. NOTE: Does not update the allowance if the current allowance is the maximum `uint256`. Requirements: - `from` and `to` cannot be the zero address. - `from` must have a balance of at least `amount`. - the caller must have allowance for ``from``'s tokens of at least `amount`."
      },
      "transferOwnership(address)": {
        "details": "Transfers ownership of the contract to a new account (`newOwner`). Can only be called by the current owner."
      }
    },
    "version": 1
  },
  "userdoc": {
    "kind": "user",
    "methods": {},
    "version": 1
  }
}