{
  "contractName": "Users",
  "abi": [
    {
      "anonymous": false,
      "inputs": [
        {
          "indexed": true,
          "internalType": "address",
          "name": "previousOwner",
          "type": "address"
        },
        {
          "indexed": true,
          "internalType": "address",
          "name": "newOwner",
          "type": "address"
        }
      ],
      "name": "OwnershipTransferred",
      "type": "event"
    },
    {
      "anonymous": false,
      "inputs": [
        {
          "indexed": false,
          "internalType": "string",
          "name": "name",
          "type": "string"
        },
        {
          "indexed": false,
          "internalType": "string",
          "name": "email",
          "type": "string"
        }
      ],
      "name": "UserAdded",
      "type": "event"
    },
    {
      "anonymous": false,
      "inputs": [
        {
          "indexed": false,
          "internalType": "string",
          "name": "name",
          "type": "string"
        },
        {
          "indexed": false,
          "internalType": "string",
          "name": "email",
          "type": "string"
        }
      ],
      "name": "UserUpdated",
      "type": "event"
    },
    {
      "inputs": [],
      "name": "owner",
      "outputs": [
        {
          "internalType": "address",
          "name": "",
          "type": "address"
        }
      ],
      "stateMutability": "view",
      "type": "function",
      "constant": true
    },
    {
      "inputs": [],
      "name": "renounceOwnership",
      "outputs": [],
      "stateMutability": "nonpayable",
      "type": "function"
    },
    {
      "inputs": [
        {
          "internalType": "address",
          "name": "newOwner",
          "type": "address"
        }
      ],
      "name": "transferOwnership",
      "outputs": [],
      "stateMutability": "nonpayable",
      "type": "function"
    },
    {
      "inputs": [
        {
          "internalType": "address",
          "name": "",
          "type": "address"
        }
      ],
      "name": "userId",
      "outputs": [
        {
          "internalType": "uint256",
          "name": "",
          "type": "uint256"
        }
      ],
      "stateMutability": "view",
      "type": "function",
      "constant": true
    },
    {
      "inputs": [
        {
          "internalType": "string",
          "name": "_name",
          "type": "string"
        },
        {
          "internalType": "string",
          "name": "_email",
          "type": "string"
        }
      ],
      "name": "updateUser",
      "outputs": [
        {
          "internalType": "bool",
          "name": "",
          "type": "bool"
        }
      ],
      "stateMutability": "nonpayable",
      "type": "function"
    }
  ],
  "bytecode": "0x608060405234801561001057600080fd5b5061002d61002261003260201b60201c565b61003a60201b60201c565b6100fe565b600033905090565b60008060009054906101000a900473ffffffffffffffffffffffffffffffffffffffff169050816000806101000a81548173ffffffffffffffffffffffffffffffffffffffff021916908373ffffffffffffffffffffffffffffffffffffffff1602179055508173ffffffffffffffffffffffffffffffffffffffff168173ffffffffffffffffffffffffffffffffffffffff167f8be0079c531659141344cd1fd0a4f28419497f9722a3daafe3b4186f6b6457e060405160405180910390a35050565b610b238061010d6000396000f3fe608060405234801561001057600080fd5b50600436106100575760003560e01c8063376fe1021461005c578063715018a61461008c5780638da5cb5b14610096578063dd4a2425146100b4578063f2fde38b146100e4575b600080fd5b61007660048036038101906100719190610664565b610100565b60405161008391906106aa565b60405180910390f35b610094610118565b005b61009e6101a0565b6040516100ab91906106d4565b60405180910390f35b6100ce60048036038101906100c99190610835565b6101c9565b6040516100db91906108c8565b60405180910390f35b6100fe60048036038101906100f99190610664565b61038c565b005b60026020528060005260406000206000915090505481565b610120610483565b73ffffffffffffffffffffffffffffffffffffffff1661013e6101a0565b73ffffffffffffffffffffffffffffffffffffffff1614610194576040517f08c379a000000000000000000000000000000000000000000000000000000000815260040161018b90610940565b60405180910390fd5b61019e600061048b565b565b60008060009054906101000a900473ffffffffffffffffffffffffffffffffffffffff16905090565b60006101d3610483565b73ffffffffffffffffffffffffffffffffffffffff166101f16101a0565b73ffffffffffffffffffffffffffffffffffffffff1614610247576040517f08c379a000000000000000000000000000000000000000000000000000000000815260040161023e90610940565b60405180910390fd5b6000600260003373ffffffffffffffffffffffffffffffffffffffff1673ffffffffffffffffffffffffffffffffffffffff16815260200190815260200160002054036102c9576040517f08c379a00000000000000000000000000000000000000000000000000000000081526004016102c0906109ac565b60405180910390fd5b6000600260003373ffffffffffffffffffffffffffffffffffffffff1673ffffffffffffffffffffffffffffffffffffffff1681526020019081526020016000205490508360018281548110610322576103216109cc565b5b9060005260206000209060030201600001908051906020019061034692919061054f565b50826001828154811061035c5761035b6109cc565b5b9060005260206000209060030201600101908051906020019061038092919061054f565b50600191505092915050565b610394610483565b73ffffffffffffffffffffffffffffffffffffffff166103b26101a0565b73ffffffffffffffffffffffffffffffffffffffff1614610408576040517f08c379a00000000000000000000000000000000000000000000000000000000081526004016103ff90610940565b60405180910390fd5b600073ffffffffffffffffffffffffffffffffffffffff168173ffffffffffffffffffffffffffffffffffffffff1603610477576040517f08c379a000000000000000000000000000000000000000000000000000000000815260040161046e90610a6d565b60405180910390fd5b6104808161048b565b50565b600033905090565b60008060009054906101000a900473ffffffffffffffffffffffffffffffffffffffff169050816000806101000a81548173ffffffffffffffffffffffffffffffffffffffff021916908373ffffffffffffffffffffffffffffffffffffffff1602179055508173ffffffffffffffffffffffffffffffffffffffff168173ffffffffffffffffffffffffffffffffffffffff167f8be0079c531659141344cd1fd0a4f28419497f9722a3daafe3b4186f6b6457e060405160405180910390a35050565b82805461055b90610abc565b90600052602060002090601f01602090048101928261057d57600085556105c4565b82601f1061059657805160ff19168380011785556105c4565b828001600101855582156105c4579182015b828111156105c35782518255916020019190600101906105a8565b5b5090506105d191906105d5565b5090565b5b808211156105ee5760008160009055506001016105d6565b5090565b6000604051905090565b600080fd5b600080fd5b600073ffffffffffffffffffffffffffffffffffffffff82169050919050565b600061063182610606565b9050919050565b61064181610626565b811461064c57600080fd5b50565b60008135905061065e81610638565b92915050565b60006020828403121561067a576106796105fc565b5b60006106888482850161064f565b91505092915050565b6000819050919050565b6106a481610691565b82525050565b60006020820190506106bf600083018461069b565b92915050565b6106ce81610626565b82525050565b60006020820190506106e960008301846106c5565b92915050565b600080fd5b600080fd5b6000601f19601f8301169050919050565b7f4e487b7100000000000000000000000000000000000000000000000000000000600052604160045260246000fd5b610742826106f9565b810181811067ffffffffffffffff821117156107615761076061070a565b5b80604052505050565b60006107746105f2565b90506107808282610739565b919050565b600067ffffffffffffffff8211156107a05761079f61070a565b5b6107a9826106f9565b9050602081019050919050565b82818337600083830152505050565b60006107d86107d384610785565b61076a565b9050828152602081018484840111156107f4576107f36106f4565b5b6107ff8482856107b6565b509392505050565b600082601f83011261081c5761081b6106ef565b5b813561082c8482602086016107c5565b91505092915050565b6000806040838503121561084c5761084b6105fc565b5b600083013567ffffffffffffffff81111561086a57610869610601565b5b61087685828601610807565b925050602083013567ffffffffffffffff81111561089757610896610601565b5b6108a385828601610807565b9150509250929050565b60008115159050919050565b6108c2816108ad565b82525050565b60006020820190506108dd60008301846108b9565b92915050565b600082825260208201905092915050565b7f4f776e61626c653a2063616c6c6572206973206e6f7420746865206f776e6572600082015250565b600061092a6020836108e3565b9150610935826108f4565b602082019050919050565b600060208201905081810360008301526109598161091d565b9050919050565b7f75736572206e6f7420666f756e642e0000000000000000000000000000000000600082015250565b6000610996600f836108e3565b91506109a182610960565b602082019050919050565b600060208201905081810360008301526109c581610989565b9050919050565b7f4e487b7100000000000000000000000000000000000000000000000000000000600052603260045260246000fd5b7f4f776e61626c653a206e6577206f776e657220697320746865207a65726f206160008201527f6464726573730000000000000000000000000000000000000000000000000000602082015250565b6000610a576026836108e3565b9150610a62826109fb565b604082019050919050565b60006020820190508181036000830152610a8681610a4a565b9050919050565b7f4e487b7100000000000000000000000000000000000000000000000000000000600052602260045260246000fd5b60006002820490506001821680610ad457607f821691505b602082108103610ae757610ae6610a8d565b5b5091905056fea2646970667358221220f619bdd7d860f37f2183be04719814dcc69394115eabed53839cf66360e07bc264736f6c634300080e0033",
  "immutableReferences": {},
  "source": "// SPDX-License-Identifier: MIT\npragma solidity >=0.4.2 <=0.9.0;\n\nimport \"../node_modules/@openzeppelin/contracts/access/Ownable.sol\";\n\ncontract Users is Ownable {\n  struct User {\n    string name;\n    string email;\n    address userAddress;\n  }\n\n  User[] users;\n  \n  mapping (address => uint) public userId;\n\n  event UserAdded(string name, string email);\n  event UserUpdated(string name, string email);\n  \n  function getUserByAddress(address _userAddress) view internal returns (string memory, string memory, address) {\n    User memory _user = users[userId[_userAddress]];\n    return (_user.name, _user.email, _user.userAddress);\n  }\n\n  function getIsExistedUser(address _userAddress) view internal returns (bool) {\n    string memory _name;\n    string memory _email;\n    address _address;\n    (_name, _email, _address) = getUserByAddress(_userAddress);\n    return _address == _userAddress;\n  }\n\n  function updateUser(string memory _name, string memory _email) onlyOwner public returns (bool) {\n    require(userId[msg.sender] != 0, \"user not found.\");\n    uint id = userId[msg.sender];\n    users[id].name = _name;\n    users[id].email = _email;\n    return true;\n  }\n}\n",
  "sourcePath": "/Users/muraokakento/works/private/arigato-coin/contracts/Users.sol",
  "compiler": {
    "name": "solc",
    "version": "0.8.14+commit.80d49f37.Emscripten.clang"
  },
  "schemaVersion": "3.4.7",
  "updatedAt": "2022-06-27T09:16:41.678Z",
  "networkType": "ethereum",
  "devdoc": {
    "kind": "dev",
    "methods": {
      "owner()": {
        "details": "Returns the address of the current owner."
      },
      "renounceOwnership()": {
        "details": "Leaves the contract without owner. It will not be possible to call `onlyOwner` functions anymore. Can only be called by the current owner. NOTE: Renouncing ownership will leave the contract without an owner, thereby removing any functionality that is only available to the owner."
      },
      "transferOwnership(address)": {
        "details": "Transfers ownership of the contract to a new account (`newOwner`). Can only be called by the current owner."
      }
    },
    "version": 1
  },
  "userdoc": {
    "kind": "user",
    "methods": {},
    "version": 1
  }
}