{
  "contractName": "Users",
  "abi": [
    {
      "anonymous": false,
      "inputs": [
        {
          "indexed": true,
          "internalType": "address",
          "name": "previousOwner",
          "type": "address"
        },
        {
          "indexed": true,
          "internalType": "address",
          "name": "newOwner",
          "type": "address"
        }
      ],
      "name": "OwnershipTransferred",
      "type": "event"
    },
    {
      "anonymous": false,
      "inputs": [
        {
          "indexed": false,
          "internalType": "string",
          "name": "name",
          "type": "string"
        },
        {
          "indexed": false,
          "internalType": "string",
          "name": "email",
          "type": "string"
        }
      ],
      "name": "UserAdded",
      "type": "event"
    },
    {
      "anonymous": false,
      "inputs": [
        {
          "indexed": false,
          "internalType": "string",
          "name": "name",
          "type": "string"
        },
        {
          "indexed": false,
          "internalType": "string",
          "name": "email",
          "type": "string"
        }
      ],
      "name": "UserUpdated",
      "type": "event"
    },
    {
      "inputs": [],
      "name": "owner",
      "outputs": [
        {
          "internalType": "address",
          "name": "",
          "type": "address"
        }
      ],
      "stateMutability": "view",
      "type": "function"
    },
    {
      "inputs": [],
      "name": "renounceOwnership",
      "outputs": [],
      "stateMutability": "nonpayable",
      "type": "function"
    },
    {
      "inputs": [
        {
          "internalType": "address",
          "name": "newOwner",
          "type": "address"
        }
      ],
      "name": "transferOwnership",
      "outputs": [],
      "stateMutability": "nonpayable",
      "type": "function"
    },
    {
      "inputs": [
        {
          "internalType": "address",
          "name": "",
          "type": "address"
        }
      ],
      "name": "userId",
      "outputs": [
        {
          "internalType": "uint256",
          "name": "",
          "type": "uint256"
        }
      ],
      "stateMutability": "view",
      "type": "function"
    },
    {
      "inputs": [],
      "name": "getUsers",
      "outputs": [
        {
          "components": [
            {
              "internalType": "string",
              "name": "name",
              "type": "string"
            },
            {
              "internalType": "string",
              "name": "email",
              "type": "string"
            },
            {
              "internalType": "address",
              "name": "userAddress",
              "type": "address"
            }
          ],
          "internalType": "struct Users.User[]",
          "name": "",
          "type": "tuple[]"
        }
      ],
      "stateMutability": "view",
      "type": "function"
    },
    {
      "inputs": [
        {
          "internalType": "address",
          "name": "_userAddress",
          "type": "address"
        }
      ],
      "name": "getUserByAddress",
      "outputs": [
        {
          "internalType": "string",
          "name": "",
          "type": "string"
        },
        {
          "internalType": "string",
          "name": "",
          "type": "string"
        },
        {
          "internalType": "address",
          "name": "",
          "type": "address"
        }
      ],
      "stateMutability": "view",
      "type": "function"
    },
    {
      "inputs": [
        {
          "internalType": "address",
          "name": "_userAddress",
          "type": "address"
        }
      ],
      "name": "getIsExistedUser",
      "outputs": [
        {
          "internalType": "bool",
          "name": "",
          "type": "bool"
        }
      ],
      "stateMutability": "view",
      "type": "function"
    },
    {
      "inputs": [
        {
          "internalType": "string",
          "name": "_name",
          "type": "string"
        },
        {
          "internalType": "string",
          "name": "_email",
          "type": "string"
        }
      ],
      "name": "updateUser",
      "outputs": [
        {
          "internalType": "bool",
          "name": "",
          "type": "bool"
        }
      ],
      "stateMutability": "nonpayable",
      "type": "function"
    }
  ],
  "bytecode": "0x608060405234801561001057600080fd5b5061002d61002261003260201b60201c565b61003a60201b60201c565b6100fe565b600033905090565b60008060009054906101000a900473ffffffffffffffffffffffffffffffffffffffff169050816000806101000a81548173ffffffffffffffffffffffffffffffffffffffff021916908373ffffffffffffffffffffffffffffffffffffffff1602179055508173ffffffffffffffffffffffffffffffffffffffff168173ffffffffffffffffffffffffffffffffffffffff167f8be0079c531659141344cd1fd0a4f28419497f9722a3daafe3b4186f6b6457e060405160405180910390a35050565b61125c8061010d6000396000f3fe608060405234801561001057600080fd5b50600436106100875760003560e01c80638da5cb5b1161005b5780638da5cb5b14610116578063c940658d14610134578063dd4a242514610164578063f2fde38b1461019457610087565b8062ce8e3e1461008c578063376fe102146100aa57806369c212f6146100da578063715018a61461010c575b600080fd5b6100946101b0565b6040516100a19190610cce565b60405180910390f35b6100c460048036038101906100bf9190610d30565b610389565b6040516100d19190610d76565b60405180910390f35b6100f460048036038101906100ef9190610d30565b6103a1565b60405161010393929190610dea565b60405180910390f35b6101146105ac565b005b61011e610634565b60405161012b9190610e2f565b60405180910390f35b61014e60048036038101906101499190610d30565b61065d565b60405161015b9190610e65565b60405180910390f35b61017e60048036038101906101799190610fb5565b6106b2565b60405161018b9190610e65565b60405180910390f35b6101ae60048036038101906101a99190610d30565b610875565b005b60606001805480602002602001604051908101604052809291908181526020016000905b8282101561038057838290600052602060002090600302016040518060600160405290816000820180546102079061105c565b80601f01602080910402602001604051908101604052809291908181526020018280546102339061105c565b80156102805780601f1061025557610100808354040283529160200191610280565b820191906000526020600020905b81548152906001019060200180831161026357829003601f168201915b505050505081526020016001820180546102999061105c565b80601f01602080910402602001604051908101604052809291908181526020018280546102c59061105c565b80156103125780601f106102e757610100808354040283529160200191610312565b820191906000526020600020905b8154815290600101906020018083116102f557829003601f168201915b505050505081526020016002820160009054906101000a900473ffffffffffffffffffffffffffffffffffffffff1673ffffffffffffffffffffffffffffffffffffffff1673ffffffffffffffffffffffffffffffffffffffff1681525050815260200190600101906101d4565b50505050905090565b60026020528060005260406000206000915090505481565b6060806000806001600260008773ffffffffffffffffffffffffffffffffffffffff1673ffffffffffffffffffffffffffffffffffffffff16815260200190815260200160002054815481106103fa576103f961108d565b5b90600052602060002090600302016040518060600160405290816000820180546104239061105c565b80601f016020809104026020016040519081016040528092919081815260200182805461044f9061105c565b801561049c5780601f106104715761010080835404028352916020019161049c565b820191906000526020600020905b81548152906001019060200180831161047f57829003601f168201915b505050505081526020016001820180546104b59061105c565b80601f01602080910402602001604051908101604052809291908181526020018280546104e19061105c565b801561052e5780601f106105035761010080835404028352916020019161052e565b820191906000526020600020905b81548152906001019060200180831161051157829003601f168201915b505050505081526020016002820160009054906101000a900473ffffffffffffffffffffffffffffffffffffffff1673ffffffffffffffffffffffffffffffffffffffff1673ffffffffffffffffffffffffffffffffffffffff16815250509050806000015181602001518260400151935093509350509193909250565b6105b461096c565b73ffffffffffffffffffffffffffffffffffffffff166105d2610634565b73ffffffffffffffffffffffffffffffffffffffff1614610628576040517f08c379a000000000000000000000000000000000000000000000000000000000815260040161061f90611108565b60405180910390fd5b6106326000610974565b565b60008060009054906101000a900473ffffffffffffffffffffffffffffffffffffffff16905090565b6000606080600061066d856103a1565b8093508194508295505050508473ffffffffffffffffffffffffffffffffffffffff168173ffffffffffffffffffffffffffffffffffffffff16149350505050919050565b60006106bc61096c565b73ffffffffffffffffffffffffffffffffffffffff166106da610634565b73ffffffffffffffffffffffffffffffffffffffff1614610730576040517f08c379a000000000000000000000000000000000000000000000000000000000815260040161072790611108565b60405180910390fd5b6000600260003373ffffffffffffffffffffffffffffffffffffffff1673ffffffffffffffffffffffffffffffffffffffff16815260200190815260200160002054036107b2576040517f08c379a00000000000000000000000000000000000000000000000000000000081526004016107a990611174565b60405180910390fd5b6000600260003373ffffffffffffffffffffffffffffffffffffffff1673ffffffffffffffffffffffffffffffffffffffff168152602001908152602001600020549050836001828154811061080b5761080a61108d565b5b9060005260206000209060030201600001908051906020019061082f929190610a38565b5082600182815481106108455761084461108d565b5b90600052602060002090600302016001019080519060200190610869929190610a38565b50600191505092915050565b61087d61096c565b73ffffffffffffffffffffffffffffffffffffffff1661089b610634565b73ffffffffffffffffffffffffffffffffffffffff16146108f1576040517f08c379a00000000000000000000000000000000000000000000000000000000081526004016108e890611108565b60405180910390fd5b600073ffffffffffffffffffffffffffffffffffffffff168173ffffffffffffffffffffffffffffffffffffffff1603610960576040517f08c379a000000000000000000000000000000000000000000000000000000000815260040161095790611206565b60405180910390fd5b61096981610974565b50565b600033905090565b60008060009054906101000a900473ffffffffffffffffffffffffffffffffffffffff169050816000806101000a81548173ffffffffffffffffffffffffffffffffffffffff021916908373ffffffffffffffffffffffffffffffffffffffff1602179055508173ffffffffffffffffffffffffffffffffffffffff168173ffffffffffffffffffffffffffffffffffffffff167f8be0079c531659141344cd1fd0a4f28419497f9722a3daafe3b4186f6b6457e060405160405180910390a35050565b828054610a449061105c565b90600052602060002090601f016020900481019282610a665760008555610aad565b82601f10610a7f57805160ff1916838001178555610aad565b82800160010185558215610aad579182015b82811115610aac578251825591602001919060010190610a91565b5b509050610aba9190610abe565b5090565b5b80821115610ad7576000816000905550600101610abf565b5090565b600081519050919050565b600082825260208201905092915050565b6000819050602082019050919050565b600081519050919050565b600082825260208201905092915050565b60005b83811015610b41578082015181840152602081019050610b26565b83811115610b50576000848401525b50505050565b6000601f19601f8301169050919050565b6000610b7282610b07565b610b7c8185610b12565b9350610b8c818560208601610b23565b610b9581610b56565b840191505092915050565b600073ffffffffffffffffffffffffffffffffffffffff82169050919050565b6000610bcb82610ba0565b9050919050565b610bdb81610bc0565b82525050565b60006060830160008301518482036000860152610bfe8282610b67565b91505060208301518482036020860152610c188282610b67565b9150506040830151610c2d6040860182610bd2565b508091505092915050565b6000610c448383610be1565b905092915050565b6000602082019050919050565b6000610c6482610adb565b610c6e8185610ae6565b935083602082028501610c8085610af7565b8060005b85811015610cbc5784840389528151610c9d8582610c38565b9450610ca883610c4c565b925060208a01995050600181019050610c84565b50829750879550505050505092915050565b60006020820190508181036000830152610ce88184610c59565b905092915050565b6000604051905090565b600080fd5b600080fd5b610d0d81610bc0565b8114610d1857600080fd5b50565b600081359050610d2a81610d04565b92915050565b600060208284031215610d4657610d45610cfa565b5b6000610d5484828501610d1b565b91505092915050565b6000819050919050565b610d7081610d5d565b82525050565b6000602082019050610d8b6000830184610d67565b92915050565b600082825260208201905092915050565b6000610dad82610b07565b610db78185610d91565b9350610dc7818560208601610b23565b610dd081610b56565b840191505092915050565b610de481610bc0565b82525050565b60006060820190508181036000830152610e048186610da2565b90508181036020830152610e188185610da2565b9050610e276040830184610ddb565b949350505050565b6000602082019050610e446000830184610ddb565b92915050565b60008115159050919050565b610e5f81610e4a565b82525050565b6000602082019050610e7a6000830184610e56565b92915050565b600080fd5b600080fd5b7f4e487b7100000000000000000000000000000000000000000000000000000000600052604160045260246000fd5b610ec282610b56565b810181811067ffffffffffffffff82111715610ee157610ee0610e8a565b5b80604052505050565b6000610ef4610cf0565b9050610f008282610eb9565b919050565b600067ffffffffffffffff821115610f2057610f1f610e8a565b5b610f2982610b56565b9050602081019050919050565b82818337600083830152505050565b6000610f58610f5384610f05565b610eea565b905082815260208101848484011115610f7457610f73610e85565b5b610f7f848285610f36565b509392505050565b600082601f830112610f9c57610f9b610e80565b5b8135610fac848260208601610f45565b91505092915050565b60008060408385031215610fcc57610fcb610cfa565b5b600083013567ffffffffffffffff811115610fea57610fe9610cff565b5b610ff685828601610f87565b925050602083013567ffffffffffffffff81111561101757611016610cff565b5b61102385828601610f87565b9150509250929050565b7f4e487b7100000000000000000000000000000000000000000000000000000000600052602260045260246000fd5b6000600282049050600182168061107457607f821691505b6020821081036110875761108661102d565b5b50919050565b7f4e487b7100000000000000000000000000000000000000000000000000000000600052603260045260246000fd5b7f4f776e61626c653a2063616c6c6572206973206e6f7420746865206f776e6572600082015250565b60006110f2602083610d91565b91506110fd826110bc565b602082019050919050565b60006020820190508181036000830152611121816110e5565b9050919050565b7f75736572206e6f7420666f756e642e0000000000000000000000000000000000600082015250565b600061115e600f83610d91565b915061116982611128565b602082019050919050565b6000602082019050818103600083015261118d81611151565b9050919050565b7f4f776e61626c653a206e6577206f776e657220697320746865207a65726f206160008201527f6464726573730000000000000000000000000000000000000000000000000000602082015250565b60006111f0602683610d91565b91506111fb82611194565b604082019050919050565b6000602082019050818103600083015261121f816111e3565b905091905056fea2646970667358221220f272d146803da0edfe92ecb7e4f4105d887b2d9ac32f2d822a0df68e4ed9a89a64736f6c634300080e0033",
  "immutableReferences": {},
  "source": "// SPDX-License-Identifier: MIT\npragma solidity >=0.4.2 <=0.9.0;\n\nimport \"../node_modules/@openzeppelin/contracts/access/Ownable.sol\";\n\ncontract Users is Ownable {\n  struct User {\n    string name;\n    string email;\n    address userAddress;\n  }\n\n  User[] users;\n  \n  mapping (address => uint) public userId;\n\n  event UserAdded(string name, string email);\n  event UserUpdated(string name, string email);\n\n  function getUsers() external view returns (User[] memory) {\n    return users;\n  }\n  \n  function getUserByAddress(address _userAddress) view public returns (string memory, string memory, address) {\n    User memory _user = users[userId[_userAddress]];\n    return (_user.name, _user.email, _user.userAddress);\n  }\n\n  function getIsExistedUser(address _userAddress) view public returns (bool) {\n    string memory _name;\n    string memory _email;\n    address _address;\n    (_name, _email, _address) = getUserByAddress(_userAddress);\n    return _address == _userAddress;\n  }\n\n  function updateUser(string memory _name, string memory _email) onlyOwner public returns (bool) {\n    require(userId[msg.sender] != 0, \"user not found.\");\n    uint id = userId[msg.sender];\n    users[id].name = _name;\n    users[id].email = _email;\n    return true;\n  }\n}\n",
  "sourcePath": "/Users/muraokakento/works/private/arigato-coin/contracts/Users.sol",
  "compiler": {
    "name": "solc",
    "version": "0.8.14+commit.80d49f37.Emscripten.clang"
  },
  "schemaVersion": "3.4.7",
  "updatedAt": "2022-06-29T03:11:05.383Z",
  "devdoc": {
    "kind": "dev",
    "methods": {
      "owner()": {
        "details": "Returns the address of the current owner."
      },
      "renounceOwnership()": {
        "details": "Leaves the contract without owner. It will not be possible to call `onlyOwner` functions anymore. Can only be called by the current owner. NOTE: Renouncing ownership will leave the contract without an owner, thereby removing any functionality that is only available to the owner."
      },
      "transferOwnership(address)": {
        "details": "Transfers ownership of the contract to a new account (`newOwner`). Can only be called by the current owner."
      }
    },
    "version": 1
  },
  "userdoc": {
    "kind": "user",
    "methods": {},
    "version": 1
  }
}