{
  "contractName": "Users",
  "abi": [
    {
      "anonymous": false,
      "inputs": [
        {
          "indexed": true,
          "internalType": "address",
          "name": "previousOwner",
          "type": "address"
        },
        {
          "indexed": true,
          "internalType": "address",
          "name": "newOwner",
          "type": "address"
        }
      ],
      "name": "OwnershipTransferred",
      "type": "event"
    },
    {
      "anonymous": false,
      "inputs": [
        {
          "indexed": false,
          "internalType": "string",
          "name": "name",
          "type": "string"
        },
        {
          "indexed": false,
          "internalType": "string",
          "name": "email",
          "type": "string"
        }
      ],
      "name": "UserAdded",
      "type": "event"
    },
    {
      "anonymous": false,
      "inputs": [
        {
          "indexed": false,
          "internalType": "string",
          "name": "name",
          "type": "string"
        },
        {
          "indexed": false,
          "internalType": "string",
          "name": "email",
          "type": "string"
        }
      ],
      "name": "UserUpdated",
      "type": "event"
    },
    {
      "inputs": [],
      "name": "owner",
      "outputs": [
        {
          "internalType": "address",
          "name": "",
          "type": "address"
        }
      ],
      "stateMutability": "view",
      "type": "function",
      "constant": true
    },
    {
      "inputs": [],
      "name": "renounceOwnership",
      "outputs": [],
      "stateMutability": "nonpayable",
      "type": "function"
    },
    {
      "inputs": [
        {
          "internalType": "address",
          "name": "newOwner",
          "type": "address"
        }
      ],
      "name": "transferOwnership",
      "outputs": [],
      "stateMutability": "nonpayable",
      "type": "function"
    },
    {
      "inputs": [
        {
          "internalType": "address",
          "name": "",
          "type": "address"
        }
      ],
      "name": "userId",
      "outputs": [
        {
          "internalType": "uint256",
          "name": "",
          "type": "uint256"
        }
      ],
      "stateMutability": "view",
      "type": "function",
      "constant": true
    },
    {
      "inputs": [
        {
          "internalType": "string",
          "name": "_name",
          "type": "string"
        },
        {
          "internalType": "string",
          "name": "_email",
          "type": "string"
        }
      ],
      "name": "addUser",
      "outputs": [
        {
          "internalType": "bool",
          "name": "",
          "type": "bool"
        }
      ],
      "stateMutability": "nonpayable",
      "type": "function"
    },
    {
      "inputs": [
        {
          "internalType": "string",
          "name": "_name",
          "type": "string"
        },
        {
          "internalType": "string",
          "name": "_email",
          "type": "string"
        }
      ],
      "name": "updateUser",
      "outputs": [
        {
          "internalType": "bool",
          "name": "",
          "type": "bool"
        }
      ],
      "stateMutability": "nonpayable",
      "type": "function"
    }
  ],
  "bytecode": "0x608060405234801561001057600080fd5b5061002d61002261003260201b60201c565b61003a60201b60201c565b6100fe565b600033905090565b60008060009054906101000a900473ffffffffffffffffffffffffffffffffffffffff169050816000806101000a81548173ffffffffffffffffffffffffffffffffffffffff021916908373ffffffffffffffffffffffffffffffffffffffff1602179055508173ffffffffffffffffffffffffffffffffffffffff168173ffffffffffffffffffffffffffffffffffffffff167f8be0079c531659141344cd1fd0a4f28419497f9722a3daafe3b4186f6b6457e060405160405180910390a35050565b610e098061010d6000396000f3fe608060405234801561001057600080fd5b50600436106100625760003560e01c8063079eaf3414610067578063376fe10214610097578063715018a6146100c75780638da5cb5b146100d1578063dd4a2425146100ef578063f2fde38b1461011f575b600080fd5b610081600480360381019061007c9190610918565b61013b565b60405161008e91906109ab565b60405180910390f35b6100b160048036038101906100ac9190610a24565b6102cc565b6040516100be9190610a6a565b60405180910390f35b6100cf6102e4565b005b6100d961036c565b6040516100e69190610a94565b60405180910390f35b61010960048036038101906101049190610918565b610395565b60405161011691906109ab565b60405180910390f35b61013960048036038101906101349190610a24565b610558565b005b600080600260003373ffffffffffffffffffffffffffffffffffffffff1673ffffffffffffffffffffffffffffffffffffffff16815260200190815260200160002054146101be576040517f08c379a00000000000000000000000000000000000000000000000000000000081526004016101b590610b0c565b60405180910390fd5b60016040518060400160405280858152602001848152509080600181540180825580915050600190039060005260206000209060020201600090919091909150600082015181600001908051906020019061021a92919061071b565b50602082015181600101908051906020019061023792919061071b565b5050506000600180549050905080600260003373ffffffffffffffffffffffffffffffffffffffff1673ffffffffffffffffffffffffffffffffffffffff168152602001908152602001600020819055507f7acd5e18c3b134a0ffbfa8b0d9197999ad8fc1f631209c136272d5af877394dc84846040516102b9929190610ba3565b60405180910390a1600191505092915050565b60026020528060005260406000206000915090505481565b6102ec61064f565b73ffffffffffffffffffffffffffffffffffffffff1661030a61036c565b73ffffffffffffffffffffffffffffffffffffffff1614610360576040517f08c379a000000000000000000000000000000000000000000000000000000000815260040161035790610c26565b60405180910390fd5b61036a6000610657565b565b60008060009054906101000a900473ffffffffffffffffffffffffffffffffffffffff16905090565b600061039f61064f565b73ffffffffffffffffffffffffffffffffffffffff166103bd61036c565b73ffffffffffffffffffffffffffffffffffffffff1614610413576040517f08c379a000000000000000000000000000000000000000000000000000000000815260040161040a90610c26565b60405180910390fd5b6000600260003373ffffffffffffffffffffffffffffffffffffffff1673ffffffffffffffffffffffffffffffffffffffff1681526020019081526020016000205403610495576040517f08c379a000000000000000000000000000000000000000000000000000000000815260040161048c90610c92565b60405180910390fd5b6000600260003373ffffffffffffffffffffffffffffffffffffffff1673ffffffffffffffffffffffffffffffffffffffff16815260200190815260200160002054905083600182815481106104ee576104ed610cb2565b5b9060005260206000209060020201600001908051906020019061051292919061071b565b50826001828154811061052857610527610cb2565b5b9060005260206000209060020201600101908051906020019061054c92919061071b565b50600191505092915050565b61056061064f565b73ffffffffffffffffffffffffffffffffffffffff1661057e61036c565b73ffffffffffffffffffffffffffffffffffffffff16146105d4576040517f08c379a00000000000000000000000000000000000000000000000000000000081526004016105cb90610c26565b60405180910390fd5b600073ffffffffffffffffffffffffffffffffffffffff168173ffffffffffffffffffffffffffffffffffffffff1603610643576040517f08c379a000000000000000000000000000000000000000000000000000000000815260040161063a90610d53565b60405180910390fd5b61064c81610657565b50565b600033905090565b60008060009054906101000a900473ffffffffffffffffffffffffffffffffffffffff169050816000806101000a81548173ffffffffffffffffffffffffffffffffffffffff021916908373ffffffffffffffffffffffffffffffffffffffff1602179055508173ffffffffffffffffffffffffffffffffffffffff168173ffffffffffffffffffffffffffffffffffffffff167f8be0079c531659141344cd1fd0a4f28419497f9722a3daafe3b4186f6b6457e060405160405180910390a35050565b82805461072790610da2565b90600052602060002090601f0160209004810192826107495760008555610790565b82601f1061076257805160ff1916838001178555610790565b82800160010185558215610790579182015b8281111561078f578251825591602001919060010190610774565b5b50905061079d91906107a1565b5090565b5b808211156107ba5760008160009055506001016107a2565b5090565b6000604051905090565b600080fd5b600080fd5b600080fd5b600080fd5b6000601f19601f8301169050919050565b7f4e487b7100000000000000000000000000000000000000000000000000000000600052604160045260246000fd5b610825826107dc565b810181811067ffffffffffffffff82111715610844576108436107ed565b5b80604052505050565b60006108576107be565b9050610863828261081c565b919050565b600067ffffffffffffffff821115610883576108826107ed565b5b61088c826107dc565b9050602081019050919050565b82818337600083830152505050565b60006108bb6108b684610868565b61084d565b9050828152602081018484840111156108d7576108d66107d7565b5b6108e2848285610899565b509392505050565b600082601f8301126108ff576108fe6107d2565b5b813561090f8482602086016108a8565b91505092915050565b6000806040838503121561092f5761092e6107c8565b5b600083013567ffffffffffffffff81111561094d5761094c6107cd565b5b610959858286016108ea565b925050602083013567ffffffffffffffff81111561097a576109796107cd565b5b610986858286016108ea565b9150509250929050565b60008115159050919050565b6109a581610990565b82525050565b60006020820190506109c0600083018461099c565b92915050565b600073ffffffffffffffffffffffffffffffffffffffff82169050919050565b60006109f1826109c6565b9050919050565b610a01816109e6565b8114610a0c57600080fd5b50565b600081359050610a1e816109f8565b92915050565b600060208284031215610a3a57610a396107c8565b5b6000610a4884828501610a0f565b91505092915050565b6000819050919050565b610a6481610a51565b82525050565b6000602082019050610a7f6000830184610a5b565b92915050565b610a8e816109e6565b82525050565b6000602082019050610aa96000830184610a85565b92915050565b600082825260208201905092915050565b7f7573657220697320616c726561647920726567697374657265642e0000000000600082015250565b6000610af6601b83610aaf565b9150610b0182610ac0565b602082019050919050565b60006020820190508181036000830152610b2581610ae9565b9050919050565b600081519050919050565b60005b83811015610b55578082015181840152602081019050610b3a565b83811115610b64576000848401525b50505050565b6000610b7582610b2c565b610b7f8185610aaf565b9350610b8f818560208601610b37565b610b98816107dc565b840191505092915050565b60006040820190508181036000830152610bbd8185610b6a565b90508181036020830152610bd18184610b6a565b90509392505050565b7f4f776e61626c653a2063616c6c6572206973206e6f7420746865206f776e6572600082015250565b6000610c10602083610aaf565b9150610c1b82610bda565b602082019050919050565b60006020820190508181036000830152610c3f81610c03565b9050919050565b7f75736572206e6f7420666f756e642e0000000000000000000000000000000000600082015250565b6000610c7c600f83610aaf565b9150610c8782610c46565b602082019050919050565b60006020820190508181036000830152610cab81610c6f565b9050919050565b7f4e487b7100000000000000000000000000000000000000000000000000000000600052603260045260246000fd5b7f4f776e61626c653a206e6577206f776e657220697320746865207a65726f206160008201527f6464726573730000000000000000000000000000000000000000000000000000602082015250565b6000610d3d602683610aaf565b9150610d4882610ce1565b604082019050919050565b60006020820190508181036000830152610d6c81610d30565b9050919050565b7f4e487b7100000000000000000000000000000000000000000000000000000000600052602260045260246000fd5b60006002820490506001821680610dba57607f821691505b602082108103610dcd57610dcc610d73565b5b5091905056fea264697066735822122092ae91d83a1565095ea20cf063368332e157155ecb251aa05f6a0f527d5e060464736f6c634300080e0033",
  "immutableReferences": {},
  "source": "// SPDX-License-Identifier: MIT\npragma solidity >=0.4.2 <=0.9.0;\n\nimport \"../node_modules/@openzeppelin/contracts/access/Ownable.sol\";\n\ncontract Users is Ownable {\n  struct User {\n    string name;\n    string email;\n  }\n\n  User[] users;\n  \n  mapping (address => uint) public userId;\n\n  event UserAdded(string name, string email);\n  event UserUpdated(string name, string email);\n\n  function addUser(string memory _name, string memory _email) public returns (bool) {\n    require(userId[msg.sender] == 0, \"user is already registered.\");\n    users.push(User(_name, _email));\n    uint id = users.length;\n    userId[msg.sender] = id;\n    emit UserAdded(_name, _email);\n    return true;\n  }\n\n  function updateUser(string memory _name, string memory _email) onlyOwner public returns (bool) {\n    require(userId[msg.sender] != 0, \"user not found.\");\n    uint id = userId[msg.sender];\n    users[id].name = _name;\n    users[id].email = _email;\n    return true;\n  }\n}\n",
  "sourcePath": "/Users/muraokakento/works/private/arigato-coin/contracts/Users.sol",
  "compiler": {
    "name": "solc",
    "version": "0.8.14+commit.80d49f37.Emscripten.clang"
  },
  "schemaVersion": "3.4.7",
  "updatedAt": "2022-06-27T06:50:37.600Z",
  "networkType": "ethereum",
  "devdoc": {
    "kind": "dev",
    "methods": {
      "owner()": {
        "details": "Returns the address of the current owner."
      },
      "renounceOwnership()": {
        "details": "Leaves the contract without owner. It will not be possible to call `onlyOwner` functions anymore. Can only be called by the current owner. NOTE: Renouncing ownership will leave the contract without an owner, thereby removing any functionality that is only available to the owner."
      },
      "transferOwnership(address)": {
        "details": "Transfers ownership of the contract to a new account (`newOwner`). Can only be called by the current owner."
      }
    },
    "version": 1
  },
  "userdoc": {
    "kind": "user",
    "methods": {},
    "version": 1
  }
}